:020000040800F2
:1000000000000220110A00080D0A00083D620008E5
:100010000D0A00080D0A00080D0A00080000000083
:100020000000000000000000000000000D0A0008B1
:100030000D0A0008000000000D0A0008C161000858
:100040000D0A00080D0A00080D0A00080D0A000834
:100050000D0A00080D0A00080D0A00080D0A000824
:100060000D0A00080D0A00080D0A0008094E0008D4
:10007000154E00086D3B0008214E00082D4E00086B
:10008000895C0008394300080D0A00080D0A0008C1
:100090000D0A00080D0A00080D0A00080D0A0008E4
:1000A0000D0A00080D0A00080D0A00080D0A0008D4
:1000B000D9260108E5260108F12601086D4300084C
:1000C0000D0A0008794300080D0A0008491F0108BD
:1000D000551F0108BD5A0008E95A00081D5B0008B9
:1000E0000D0A00080D0A0008000000000D0A0008B3
:1000F0000D0A00080D0A00080D0A00080D0A000884
:100100000D0A00080D0A0008FD260108611F0108FC
:10011000515B0008855B00080D0A00080D0A000805
:100120000D0A00080D0A0008851F0108B91F010803
:10013000BD5C00080D0A00080D0A00080D0A000841
:1001400000000000000000000000000000000000AF
:100150000D0A00080D0A00080D0A0008B95B000826
:10016000854300080D0A0008D1610008F561000808
:100170000D0A0008196200080D0A00080D0A00089F
:100180000D0A00080D0A0008ED5B0008215C00085C
:100190006D1F0108791F01080D0A00080D0A0008EB
:1001A0000D0A00080D0A00080D0A00080D0A0008D3
:1001B000294B00080D0A00080D0A00080D0A000866
:1001C0000D0A00080D0A00084934000855340008DB
:1001D0000D0A0008613400080D0A00080D0A000825
:1001E0000D0A00080D0A00080D0A00080D0A000893
:1001F0000D0A00080D0A00080D0A00080D0A000883
:100200000D0A00080D0A00080D0A00080D0A000872
:100210000D0A00080D0A00080D0A00080D0A000862
:100220000D0A00080D0A00080D0A00080000000071
:100230000D0A00080D0A0008000000000D0A000861
:100240000D0A00080D0A00080D0A00080D0A000832
:100250000D0A00080D0A00080D0A00080D0A000822
:100260000D0A00080D0A00080D0A00080D0A000812
:100270000D0A00080D0A0008555C00080000000087
:100280000D0A00080D0A00080D0A00080000000011
:08029000000000000D0A000847
:1002A00010B5054C237833B9044B13B10448AFF3B0
:1002B00000800123237010BD080600240000000008
:1002C000E06C010808B5034B1BB103490348AFF3C9
:1002D000008008BD000000000C060024E06C01084E
:1002E000034613F8012B002AFBD1181A0138704776
:1002F00001F0FF01102A2BDB10F0070F08D010F8D7
:10030000013B013A8B422DD010F0070F42B3F6D1DA
:10031000F0B441EA012141EA014122F007047FF0F3
:1003200000070023F0E80256083C85EA010586EA4A
:10033000010685FA47F5A3FA87F586FA47F6A5FA86
:1003400087F68EB9EED1F0BC01F0FF0102F0070292
:1003500032B110F8013B013A83EA010313B1F8D13D
:100360000020704701387047002D06BF354603381E
:10037000073815F0010F07D1013015F4807F02BF57
:10038000013015F4C03F0130F0BC0138704700BFA8
:1003900081F0004102E000BF83F0004330B54FEA36
:1003A00041044FEA430594EA050F08BF90EA020FA3
:1003B0001FBF54EA000C55EA020C7FEA645C7FEA36
:1003C000655C00F0E2804FEA5454D4EB5555B8BF59
:1003D0006D420CDD2C4480EA020281EA030382EACA
:1003E000000083EA010180EA020281EA0303362D5C
:1003F00088BF30BD11F0004F4FEA01314FF4801C2F
:100400004CEA113102D0404261EB410113F0004F40
:100410004FEA03334CEA133302D0524263EB4303F7
:1004200094EA050F00F0A780A4F10104D5F1200E95
:100430000DDB02FA0EFC22FA05F2801841F10001F0
:1004400003FA0EF2801843FA05F359410EE0A5F1C4
:1004500020050EF1200E012A03FA0EFC28BF4CF0F5
:10046000020C43FA05F3C01851EBE37101F00045AB
:1004700007D54FF0000EDCF1000C7EEB00006EEBB8
:100480000101B1F5801F1BD3B1F5001F0CD3490842
:100490005FEA30004FEA3C0C04F101044FEA445299
:1004A00012F5800F80F09A80BCF1004F08BF5FEA20
:1004B000500C50F1000041EB045141EA050130BD00
:1004C0005FEA4C0C404141EB0101013C28BFB1F512
:1004D000801FE9D291F0000F04BF01460020B1FA5D
:1004E00081F308BF2033A3F10B03B3F120020CDA30
:1004F0000C3208DD02F1140CC2F10C0201FA0CF00E
:1005000021FA02F10CE002F11402D8BFC2F1200C72
:1005100001FA02F120FA0CFCDCBF41EA0C01904028
:10052000E41AA2BF01EB0451294330BD6FEA040471
:100530001F3C1CDA0C340EDC04F11404C4F120025C
:1005400020FA04F001FA02F340EA030021FA04F36E
:1005500045EA030130BDC4F10C04C4F1200220FAC5
:1005600002F001FA04F340EA0300294630BD21FA03
:1005700004F0294630BD94F0000F83F4801306BFC9
:1005800081F480110134013D4EE77FEA645C18BFBD
:100590007FEA655C29D094EA050F08BF90EA020F54
:1005A00005D054EA000C04BF1946104630BD91EA4C
:1005B000030F1EBF0021002030BD5FEA545C05D14F
:1005C0004000494128BF41F0004130BD14F580048E
:1005D0003CBF01F5801130BD01F0004545F0FE4102
:1005E00041F470014FF0000030BD7FEA645C1ABF37
:1005F000194610467FEA655C1CBF0B46024650EA6E
:10060000013406BF52EA033591EA030F41F4002199
:1006100030BD00BF90F0000F04BF0021704730B51F
:100620004FF4806404F132044FF000054FF00001F4
:1006300050E700BF90F0000F04BF0021704730B5B5
:100640004FF4806404F1320410F0004548BF40428A
:100650004FF000013EE700BF42004FEAE2014FEADF
:1006600031014FEA02701FBF12F07F4393F07F4FBA
:1006700081F06051704732F07F4208BF704793F0BD
:100680007F4F04BF41F40021704730B54FF46074D0
:1006900001F0004521F000411CE700BF50EA0102D3
:1006A00008BF704730B54FF000050AE050EA01027C
:1006B00008BF704730B511F0004502D5404261EBEC
:1006C00041014FF4806404F132045FEA915C3FF42D
:1006D000D8AE4FF003025FEADC0C18BF03325FEACA
:1006E000DC0C18BF033202EBDC02C2F1200300FA7B
:1006F00003FC20FA02F001FA03FE40EA0E0021FAA0
:1007000002F11444BDE600BF53B94AB9002908BF3D
:1007100000281CBF4FF0FF314FF0FF3000F074B9DC
:10072000ADF1080C6DE904CE00F006F8DDF804E048
:10073000DDE9022304B070472DE9F047089D044627
:100740008E46002B4DD18A42944669D9B2FA82F284
:1007500052B101FA02F3C2F1200120FA01F10CFAC0
:1007600002FC41EA030E94404FEA1C48210CBEFBF8
:10077000F8F61FFA8CF708FB16E341EA034306FB81
:1007800007F199420AD91CEB030306F1FF3080F010
:100790001F81994240F21C81023E63445B1AA4B25D
:1007A000B3FBF8F008FB103344EA034400FB07F7FF
:1007B000A7420AD91CEB040400F1FF3380F00A8140
:1007C000A74240F207816444023840EA0640E41B35
:1007D00000261DB1D4400023C5E900433146BDE8E1
:1007E000F0878B4209D9002D00F0EF800026C5E983
:1007F000000130463146BDE8F087B3FA83F6002E9B
:100800004AD18B4202D3824200F2F980841A61EB12
:10081000030301209E46002DE0D0C5E9004EDDE730
:1008200002B9FFDEB2FA82F2002A40F09280A1EB18
:100830000C014FEA1C471FFA8CFE0126200CB1FB6D
:10084000F7F307FB131140EA01410EFB03F0884266
:1008500008D91CEB010103F1FF3802D2884200F2F3
:10086000CB804346091AA4B2B1FBF7F007FB101185
:1008700044EA01440EFB00FEA64508D91CEB040423
:1008800000F1FF3102D2A64500F2BB800846A4EB7E
:100890000E0440EA03409CE7C6F12007B34022FA69
:1008A00007FC4CEA030C20FA07F401FA06F31C4398
:1008B000F9404FEA1C4900FA06F3B1FBF9F8200CA5
:1008C0001FFA8CFE09FB181140EA014108FB0EF0EB
:1008D000884202FA06F20BD91CEB010108F1FF3A3B
:1008E00080F08880884240F28580A8F10208614447
:1008F000091AA4B2B1FBF9F009FB101144EA014155
:1009000000FB0EFE8E4508D91CEB010100F1FF34FF
:100910006CD28E456AD90238614440EA0840A0FB97
:100920000294A1EB0E01A142C846A64656D353D06D
:100930005DB1B3EB080261EB0E0101FA07F722FA91
:1009400006F3F1401F43C5E9007100263146BDE8BA
:10095000F087C2F12003D8400CFA02FC21FA03F31D
:10096000914001434FEA1C471FFA8CFEB3FBF7F09E
:1009700007FB10360B0C43EA064300FB0EF69E42C3
:1009800004FA02F408D91CEB030300F1FF382FD25C
:100990009E422DD9023863449B1B89B2B3FBF7F604
:1009A00007FB163341EA034106FB0EF38B4208D9DD
:1009B0001CEB010106F1FF3816D28B4214D9023E1E
:1009C0006144C91A46EA004638E72E46284605E73C
:1009D0000646E3E61846F8E64B45A9D2B9EB02080D
:1009E00064EB0C0E0138A3E74646EAE7204694E79D
:1009F0004046D1E7D0467BE7023B614432E73046D0
:100A000009E76444023842E7704700BFFEE700BFD1
:100A10000B480C4A904203D0121A0B4914F028FBE1
:100A20000A480B4A904203D0121A002114F02EFB00
:100A300005F05CFE14F0F0FA00F074F9FEE700BF78
:100A40000000002408060024146D01080806002494
:100A50004C8D0124704700BF704700BF704700BF36
:100A6000704700BF704700BF704700BFB9B3014473
:100A7000F0B51546A5B002F10807441E4E1E01E070
:100A8000A6422AD014F8011F6A46384602F03CFA02
:100A90000028F5D0D5F8A8C090226946D5E92B03E7
:100AA000C31A00F1010E00EBC00048BF63440CF113
:100AB000FF3C9C45E4D0D5F8A430C5F8ACE003EB8E
:100AC000001014F0D5FAD5E92A239342A3EB0203D0
:100AD00028BFC5F8AC30A642D4D125B0F0BD7047D0
:100AE00070B504462D482E4D2E4E2DED048B12F080
:100AF000EDFE2D48F0EE408A13F002F82B4A28460E
:100B00002B4BB6EE008AD2ED007A83ED000A70EE30
:100B1000277AB0EE670AC5ED027A13F0ABF92846E2
:100B200085ED070A12F0ECFF84ED000AD6ED007A9D
:100B30002048F4EEC87AF1EE10FA23DD13F0BCF988
:100B4000D6ED007AB0EE007A1B4878EE677AB7EE01
:100B5000009AF0EE409A94ED000AA7EEC79A13F0BF
:100B6000ABF9D6ED007A38EE678A38EE088A28EEBF
:100B7000008AA9EE898A28EE888A84ED008ABDEC75
:100B8000048B70BD13F098F9B0EE408A28EE888A85
:100B900084ED008ABDEC048B70BD00BF9406002478
:100BA0003C0700246C2C012410070024642C012431
:100BB000742C0124CC060024489A002484B070B51B
:100BC0002DED028BADF5047D8AAC84E80F009DF815
:100BD00028429DF83062012C9DF831520DD0032C33
:100BE00003D1012E5FD0022E51D00DF5047DBDEC56
:100BF000028BBDE8704004B070478B9A33463E4983
:100C000004A8009514F03EFB04A8FFF769FB04A9B3
:100C100002463A4802F0F2FB002DE6D007EE906A59
:100C2000DFED376AB2EE087A9FED368AF8EE677A22
:100C3000354EB0EE000A77EEE67AC7EE870ACDEDC4
:100C4000030A13F03DFD20EE080A304686ED020A45
:100C500013F010F9F0EE407ADDED030AB0EE000A71
:100C6000C6ED077A13F02CFD07EE905ADFED276AE8
:100C700020EE080A264BF8EEE77A264A83ED000AB2
:100C800087EEA67A82F8344086ED017AADE707EE6A
:100C9000905ADFED1E6A204BF8EE677A87EEA67A4F
:100CA00083ED017AA1E707EE905ADFED156AB2EE07
:100CB000087A9FED148AF8EE677AB0EE000A77EEB4
:100CC000E67AC7EE870ACDED030A13F0F9FCF0EEE1
:100CD000407A114BB0EE000ADDED030A67EE887A28
:100CE000C3ED027A13F0ECFCDFED0C7A0C4BE0EE76
:100CF000087AC3ED027A78E7886401088C0700243B
:100D000000008A420000DC433C0700240000FE4251
:100D1000642C012494060024CC0600240000C84260
:100D2000489A00242DE9F04FAD4B4FF00008DFF852
:100D300040A34FF07C574146AA48AB4CDFF83493B0
:100D4000DFF834B3A94EAA4D2DED0A8BC3F800800D
:100D5000B7EE009A9FEDA78AE9B0A74BDFEDA7AAEF
:100D600083ED008AA64B9FEDA7BAC3ED00AAA64B60
:100D7000DFEDA6BA83ED008AA54B9FEDA6AA83ED11
:100D8000008AA54BDFEDA59A83ED008AA44B83ED85
:100D9000008AA44B83ED00BAA34BC3F800A0A34B79
:100DA000C3ED00BAA24B83ED009AA24B83ED00AADB
:100DB000A14B83F8008000F0D5FC0421894800F0A5
:100DC000F9FB884800F00CFC89EE00CA204684ED4F
:100DD000040A6760E76084ED068AF0EE408AC4ED9D
:100DE000029AB0EE690A84ED05CA13F043F840F2A6
:100DF0000113484684ED070AB0EE680A238584F89B
:100E0000008013F03DF8B0EE680A584613F038F849
:100E10003046B0EE680A12F041FD2846B0EE690A8D
:100E20006F60EF60C5ED048A85ED05CAC5ED029AD5
:100E300085ED068A13F01EF840F2011385ED070ACE
:100E4000C9ED02BA20462B857C4B9FED7D0AC9F87F
:100E500004A04FF00209CBF808307A4B85F80080E7
:100E6000C3F8009084ED020A84F800908BED018AAB
:100E700013F000F884ED019A284684ED070AB0EEDD
:100E80004A0A714C85F8008085ED02AA12F0F2FF43
:100E9000376244AFF0EE407ADFED6C0AB0EE690ADB
:100EA00086ED02BAC6F80CA0C5ED077A85ED019A69
:100EB00086ED069A86ED058A20AE654D0FCC0FC7EC
:100EC00094E80F0087E80F004A4644A9614802F001
:100ED000D9F804F1100C0DF5887EF0EE490AB0EE59
:100EE000480ABCE80F00AEE80F009CE80F0087E856
:100EF0000F00424644A9584802F0C4F8A4F1100E6D
:100F00000DF5887CB5EE000AF0EE6A0ABEE80F0027
:100F1000ACE80F0094E80F0087E80F004A4644A9A8
:100F20004E4802F0AFF84FF4407328462B8050F83B
:100F3000041B02F01FFB05F1080002F09DF8A4F16C
:100F4000780000F04FFBA4F17800454900F030FB39
:100F5000444802F043FBB0B3902244A8D5E92B34B7
:100F60001F1B04EBC40C24D4002FF1D0A34224D0C7
:100F7000D5F8A430013403EB0C1114F079F8D5F84E
:100F8000A830C5F8B04044A99C42A4EB03044FF03C
:100F90009002304628BFC5F8B04014F069F824A983
:100FA0008022684614F064F896E80F00FFF706FE0A
:100FB000D2E7D5F8A8100F44D6E79022002130469A
:100FC00014F064F8EBE7284802F056F8254802F0E0
:100FD00009FB1F4A2549101D02F0F6FABCE700BFC5
:100FE000582C0124680700243C07002494060024A0
:100FF0001007002400000000742C012400007A4433
:10100000642C01240AD7233C602C012400401C4698
:101010005C2C0124CDCCCC3D089B00240000C842B0
:10102000049B0024FC9A0024682C0124009B0024CB
:101030000C9B0024109B0024702C01240080894408
:101040000000DC43782C0124D007002400409C469B
:10105000149B00245C060024C49A00248C9A00246B
:1010600035140008189B00241C9B00246D0A0008FE
:10107000CDCC4C3FCC060024489A0024204991F85E
:101080004C2010B432B191F85220A2F17F02B2FA92
:1010900082F252091B4C1C4823681A4480FB023020
:1010A000D317C3EB600303EB8303D31A032B236033
:1010B00021D0DAB2082A28BF0022144891F844301F
:1010C000027003B14B6E1248124A0468124923445D
:1010D00082FB03425DF8044BA2EBE37202EB420297
:1010E0009B1A0333A1FB031222F0010101EB520210
:1010F0009B1A0360704704231A462360DDE700BF94
:1011000068070024782C0124676666663C07002483
:10111000582C012456555555ABAAAAAA0000000028
:1011200070B57148714D724C2DED028B01F01AFEB5
:10113000704885ED000A01F015FE6F4B84ED000A42
:101140001B68012B07D0022B00F08280002B3CD0C3
:10115000BDEC028B70BD694BD5ED008A93ED008A22
:10116000614801F0FFFD38EE688A654B654DB0EED1
:10117000C88A60489FED5A6BB7EEC88AB4EEC68B3A
:10118000D4ED008A93ED008AF1EE10FAC8BF85ED28
:10119000000A01F0E7FD38EE688A5B4B2A68B0EE82
:1011A000C88A9FED4F6BB7EEC88AB4EEC68BBDEC14
:1011B000028BF1EE10FAD4BF93ED000A83ED000A22
:1011C000524B83ED030A9A6070BD4C4BD5ED008AFB
:1011D00093ED008A4E4801F085FF38EE688A484B4F
:1011E0004C4DB0EEC88A4C489FED3D6BB7EEC88AB7
:1011F000B4EEC68BD4ED008A93ED008AF1EE10FABE
:10120000C8BF85ED000A01F06DFF38EE688A95EDE4
:10121000007ADFED427A424BB0EEC88A414A77EE5F
:10122000277AB7EEC88AC2ED027A9FED2D6BB4EE35
:10123000C68BBDEC028BF1EE10FAD4BF93ED000A21
:1012400083ED000A384B83ED027A83ED010A70BD0D
:101250002A4BD5ED008A93ED008A344801F042FF15
:1012600038EE688A264B324EB0EEC88A2148314D9E
:101270009FED1B6BB7EEC88AB4EEC68BD4ED008A27
:1012800093ED008A2C4CF1EE10FAC8BF86ED000AEF
:1012900001F068FD38EE688A20469FED116BB0EED4
:1012A000C88AB7EEC88AB4EEC68BF1EE10FAC8BF92
:1012B00085ED000A96ED000A84ED020A12F0DAFDCF
:1012C000D5ED007A9FED157A84ED070A67EE877AEF
:1012D000BDEC028BC4ED017A70BD00BFAFF300809E
:1012E0002D431CEBE2360A3FD0070024049B002468
:1012F000089B0024F0070024582C01245C2C0124B6
:10130000602C0124FC9A0024682C012494060024FB
:101310005C060024009B0024C49A00240000C842FC
:101320006C2C0124489A0024CC0600248C9A0024BA
:10133000109B00240C9B00241007002408B51F4BB1
:101340001B68022B2ED0012B06D19FED1D0AF7EE54
:10135000000AB0EE401A06E0DFED190A4BBBB7EE0B
:10136000001AB0EE600A174801F03AFF164B174812
:101370001B789FED130A01EE103AB8EE411AF0EE19
:10138000410A01F02DFF124B124AD3F800C0126837
:10139000114B12491A601248C1F800C0BDE808405C
:1013A00000F040B9DFED060AB7EE000AB0EE601AB1
:1013B000D9E7B0EE600AB0EE601AD4E7582C0124E9
:1013C0000000000040080024702C01249408002430
:1013D000049B0024089B0024602C01245C2C012425
:1013E00068070024104B93F8B420A2B193F8BA20F8
:1013F0007F2A10D10D4A012182F8341093F8C420BD
:1014000042B193F8CA307F2B04D1094A137883F094
:10141000010313707047064A1278002AEED0034A7F
:1014200011780029EAD1E6E7680700249406002431
:10143000702C012470B5124882B016460C4600F09C
:10144000D5F80F4800F0DEF8FFF718FEFFF768FE4A
:10145000FFF774FFFFF7C6FF7EB1013E0025760857
:1014600001A80834FFF73CFB019AAE4205F10105E3
:1014700044F8082C44F8042CF2D102B070BD00BF2F
:10148000680700242DE9F047364C0025DFF8148169
:1014900040F20F77256004F5C070656140F20116D7
:1014A0002562E56301F01CFD04F51473C4F8905146
:1014B0002046C4F84032C4F83882A4F83C72C4F81C
:1014C0004462DFF8E4A02849DFF8E090C4E99255CF
:1014D000264C224612F0B8FF22465146244812F00C
:1014E000B3FF22465146234812F0AEFF224649463A
:1014F000214812F0A9FF22464946204812F0A4FFD5
:1015000022461F491F4812F09FFF1F4822461F49CD
:1015100000F1B4034560C0F89C80C0F8A4304FF4DB
:101520004073C0F8A0700360C0F8A860C0E92B55F4
:10153000174D12F089FF22461648294612F084FF03
:1015400022462946144812F07FFF224629461348B6
:1015500012F07AFF224629461148BDE8F04712F002
:1015600073BF00BF68070024650A0008000000245C
:101570003C07002410070024CC060024489A0024CD
:10158000590A000894060024149B0024690A0008E4
:10159000550A0008240600245C060024C49A00248E
:1015A0008C9A00240080707F5D0A0008610A0008A0
:1015B00000F06EB938B5044600F072F9D4F8A850BE
:1015C000204600F089F9284601F0F0FBD4F8AC5031
:1015D000204600F081F92846BDE8384001F0E6BB1E
:1015E00000F05AB9183002F055BA00BF10B50446E1
:1015F000683001F0B7FB04F18800BDE8104001F04D
:10160000B1BB00BF10B50446403001F02BFC04F123
:10161000B00001F03DFE04F1C000BDE8104001F053
:1016200037BE00BF10B50446D83001F009FE04F5FE
:101630009670BDE8104001F003BE00BFF0B54FF456
:1016400081718FB000F1D80701254FF4C0624FF4CB
:10165000E063ADF8081000F5967402993846ADF8CD
:101660000C2008AEADF810300095DDE9032301F041
:101670008FFD40F201134FF480722046ADF8143014
:101680004FF48063059900950BADADF81820ADF8C7
:101690001C30DDE9062301F07BFD3046072105F013
:1016A00003FD96E8070085E807002946384601F063
:1016B000B1FD96E8070085E807002946204601F0BD
:1016C000A9FD384601F0BCFD20460FB0BDE8F04052
:1016D00001F0B6BD2DE9F04140F20243044602227A
:1016E000002504F1180704F1A8062DED028B8EB039
:1016F0009FED1B8AADF80C3005A8039901F0A8FFF7
:1017000002220DF12600ADF81020049901F0A0FF8F
:101710000423022205A9384601F0AEFF04F1680255
:1017200004F18803C4E92A232946384656F8048B75
:1017300002F0C6F901462046019100F0CDF80023E1
:10174000F0EE480A019940461A4601F0D9FA25B14F
:101750000EB0BDEC028BBDE8F0810125E4E700BFCF
:101760006F12033B2DE9F04104469AB00027019126
:1017700000F08CF80199204600F06EF940F606134F
:1017800004F1B0069FED400AADF8143004F1C00535
:101790003046059901F062FD4FF4007328469FED35
:1017A0003A0AADF8183004F5C878069901F056FDEC
:1017B00040F6033240F201639FED330AADF8082092
:1017C00004F140000299ADF80C70C4F8D0600FAE7F
:1017D000C4F8D45007ADADF81030DDE9032301F0B3
:1017E00011FB2046FFF72AFF2046FFF773FF28462C
:1017F00001F076FB01230DF12C0E04F5C07C15934E
:10180000189347F61223169719930223179395E816
:101810000F008CE80F008EE80F0086E80F00BDF87F
:1018200040301490ADF84E30BDF84230D4E9625EDD
:10183000ADF84C30C4E9655EBEF1000F04D07246CD
:101840003946284613F022FC13A9404604F0ECFA6E
:1018500004F5D27001F010FC3021204600F020F891
:10186000D4F8A850204600F037F8284601F09EFA38
:10187000D4F8AC50204600F02FF828461AB0BDE846
:10188000F04101F093BA00BF00000000704700BFB4
:10189000143001F00DBA00BF143001F005BA00BFDA
:1018A00038B500F1140504462DED028B284601F0F1
:1018B000EDF9284601F0F8F92846B0EE408A01F02B
:1018C000E1F9D0ED007AF8EE677A88EE277ABDEC80
:1018D000028B84ED0E7A38BD90ED0E0A704700BF82
:1018E00010B540F203338EB000244FF60B7240F275
:1018F0000341ADF8083009A80123ADF81020ADF878
:1019000024202246ADF80C100094029907940C9400
:10191000CDE90544CDE90A4402F0D4F904A8012335
:1019200022460399009402F0CDF909A802F0B0FA1A
:1019300010B901200EB010BD04A802F0A9FAA0420F
:101940000CBF022020460EB010BD00BF2DE9F041B3
:1019500003239AB0012700240646CDE914373B4BF8
:10196000CDE9104340F20453CDE91647ADF84830B5
:10197000FFF7B6FFB842054625D0022845D040F60D
:101980000132334B0DF12C081894ADF82C200B9834
:101990001997CDF84A3000F0E3F810A906F13C00A1
:1019A00003F0BEFA302003224FF07E5341460D93E0
:1019B0000E93CDE90B02F26B06F1140001F02AF947
:1019C0001AB0BDE8F0811023214A06A906908DF8CF
:1019D00028300DF12C081F4BCDF84A2007930294B4
:1019E000CDE91804CDE9080402A802F0D1FC0823CF
:1019F000029A03A94046ADF80C508DF80E400495AC
:101A000005930B9400F0ECF8C7E700200121104B80
:101A10000DF12C083A460094CDF84A304FF60B737E
:101A20000C94ADF82C302346CDE9180140F6013175
:101A30004046ADF818100699CDE90D4402F042F980
:101A40002146404602F030FAA7E700BF0402040432
:101A5000040604030704010B2DE9F04704462DEDAD
:101A6000028B82B000294DD0012140F201120023E7
:101A70000091ADF804208DF80630364A0127364B28
:101A800004F10409354904F12908626040F2027248
:101A9000A36040F60663E16004F1250AA4F825205E
:101AA000A4F82930278284F8277084F82B7004F07A
:101AB000D3FD054604F036FC6946064650BB4DB3DF
:101AC00004F130008DF8067004F04EFD072D3CD176
:101AD00004F114052046FFF739FF284601F0E4F829
:101AE0002846B0EE408A01F0CDF8D0ED007AF8EE4D
:101AF000677A88EE277A84ED0E7A02B0BDEC028B0D
:101B0000BDE8F08740F2011300918DF80610ADF8A2
:101B10000430B2E704F1300004F026FD072D11D0A7
:101B20004946204602F07CFE0EB9002DD0D1504629
:101B300002F0C4F9404602F0C1F904F1120000F0CD
:101B400079F9C5E7002EF2D1C2E74946204602F0F6
:101B500067FEBDE70508050905070506050A06062F
:101B600010B584B003460124ADF8040003A8ADF815
:101B70000C30ADF80E4002F0A1F9214603A802F0A6
:101B800087FA204604F0CCFB002103A802F080FA7B
:101B9000204604F0C5FB214603A802F079FA04B000
:101BA00010BD00BF10B5C2F3002384B00C46017C09
:101BB0008DF80D2043EA4402FA2402238DF80C200C
:101BC00003AA009402F07AFC18B10124204604B064
:101BD00010BD04460A2004F0A3FB204604B010BD4B
:101BE000034670B543F8042B044684B007C983E864
:101BF0000700A37983B91A210B461E22FA25237404
:101C00002046ADF80C20022303AA009502F056FCF2
:101C100028B1012004B070BD1B210B46EDE70A205E
:101C200004F07EFB4FF4B85200950223ADF80C206F
:101C3000204603AA217C02F041FC0028E9D10A20B9
:101C400004F06EFB41F2027200950223ADF80C2005
:101C5000204603AA217C02F031FC0028D9D10A20B9
:101C600004F05EFB042200950223ADF80C20204610
:101C700003AA217C02F022FC0028CAD10A2004F029
:101C80004FFB062200950223ADF80C20204603AA44
:101C9000217C02F013FC0028BBD10A2004F040FB99
:101CA00041F2082200950223ADF80C20204603AA39
:101CB000217C02F003FC0028ABD10A20064604F088
:101CC0002FFB0095022303AA217C2046ADF80C606F
:101CD00002F0F4FB00289CD1304604F021FB009573
:101CE00022790C232046002A8DF80C3003AA4FF0ED
:101CF000020314BF622142218DF80D10217C02F0F5
:101D0000DDFB002885D1304604F00AFB2279D4E9B6
:101D100002310B43DBB20AB943F0400362790AB1E6
:101D200043F020030E22FA258DF80D302046009551
:101D300002238DF80C2003AA217C02F0BFFB0028AF
:101D40007FF467AF0A2004F0EBFA1022009502231B
:101D5000ADF80C20204603AA217C02F0AFFB00283E
:101D60007FF457AF0A2004F0DBFA1221009502231A
:101D7000ADF80C1003AA217C204602F09FFB00283E
:101D80007FF447AF0A2004F0CBFA01220921204654
:101D9000FFF708FF003818BF01203BE7F0B510231C
:101DA00087B0234C012200250126002702A92046E6
:101DB0000195CDE902234FF48052CDE904670BF081
:101DC000F7FE642005F0A2FA02A94FF480522046E3
:101DD000CDE9046702261027CDE902670BF0E8FE83
:101DE0000322102302A92046CDE902230023042266
:101DF000CDE904234FF480520BF0DAFE40F2322397
:101E0000042202A9019310232046CDE90223019A5E
:101E1000012305924FF4805204930BF0C9FE40F663
:101E2000060120460BF0E4FE284607B0F0BD00BFD7
:101E3000842C01241C4B00221C494FF0400C30B56F
:101E4000054689B00220596007219A601A62012470
:101E5000DA620A224FF4006EDC6006922022CDE99D
:101E6000000104200821CDE9020103201021CDE961
:101E7000040108206946C3E904024FF4C072181D2A
:101E8000C3E906C24FF48052C3E909E20BF066FED3
:101E900038B92846FFF782FF003818BF012009B083
:101EA00030BD204609B030BD802C01244041005295
:101EB000614A0021D0B513688EB00A91002B40F022
:101EC000B9805E4B01214FF683700C241160022112
:101ED000D3F8D4200026032742F48052C3F8D4203C
:101EE000D3F8D42002F480520092009AD3F8E02074
:101EF00042F01002C3F8E020D3F8E02002F0100214
:101F00000192019AD3F8E02042F04002C3F8E020A9
:101F1000D3F8E02002F040020292029AD3F8E020C7
:101F200042F00802C3F8E020D3F8E02002F00802F3
:101F30000392039AD3F8E02042F48072C3F8E020C1
:101F4000D3F8E02002F480720492049AD3F8E020DF
:101F500042F08002C3F8E020D3F8E02002F08002D3
:101F60000592059AD3F8E02042F02002C3F8E02061
:101F7000D3F8E02002F020020692069AD3F8E0207F
:101F800042F00402C3F8E020D3F8E0300C9403F0F0
:101F9000040307930323079A0B93CDE9080108A9CB
:101FA000274807F039F848F23712022308A92548D4
:101FB0000C94CDE90823CDE90A6707F02DF84CF21F
:101FC0000372022308A920480C94CDE90823CDE927
:101FD0000A6707F021F840F2FF62022308A91B48B4
:101FE0000C94CDE90823CDE90A6707F015F84FF600
:101FF0000C72022308A916480C94CDE90823CDE9F8
:102000000A6707F009F84FF63F02022308A91148B2
:102010000C94CDE90823CDE90A6706F0FDFF2022E4
:10202000022308A90A480C94CDE90A67CDE90823E0
:1020300006F0F2FF0EB0D0BD7C2C01240044025803
:102040000010025800180258000C025800200258D4
:10205000001C0258001402582DE9F04FDFF81084DC
:1020600006460D46144608F118002DED028B89B086
:1020700000AF03F04DF8D8F8183073B3D8F81C301F
:10208000D8F80490002B43690BBF4FF0080A4FF0BB
:10209000100A4FF0020B4FF0040BB9F1000F2AD0D9
:1020A000A200EA46012B02F1070222F00702ADEB83
:1020B000020D6846ADEB020D694600F03F81022B30
:1020C00000F0D680002B6FD02246C847D546243773
:1020D000BD46BDEC028BBDE8F08FD8F81C30002B5C
:1020E000F5D0D8F804904FF0080A4FF0020B43697E
:1020F000B9F1000FD4D1FB61D8F80030BB61002BDF
:10210000E5D0D54803F076F86B46BBF1020F786155
:1021100008EE103AFB6900F083816A465146A2EB53
:10212000C40295466200EA46B2FBFBF2AAEBC40089
:1021300085460AEB8200EE46F861ADEB010DF869C9
:102140000EEB820CC7F810C0EC46ADEB010D00EBB6
:102150008201CCF80400CCF8081001EB8201386948
:10216000E946CCF80C1000EB8201CCF800A001EBA2
:102170008202C9E900E0C9E90212012B00F0648380
:10218000022B00F06C82002B00F08081620849462F
:102190006046BB69984718EE103A24379D46BD4605
:1021A000BDEC028BBDE8F08F002C8DD01A46D8ED27
:1021B0000C6A9FEDB27A8446331D36F922E00CF1A9
:1021C000080C07EE90EA33F922E00232F8EEE77AE3
:1021D000944267EE877A67EEA67A4CED027A07EEB4
:1021E00090EAF8EEE77A67EE877A67EEA67A4CED2A
:1021F000017AE2D8F9612246C847984ED8ED0D6AB7
:102200000020F9692B1D9FED9E7A9FED9E6ADFED00
:102210009E5A22E0F4EEC67AF1EE10FAC0F2C884BB
:1022200047F6FE72D1ED017A45F8202066EEA77AD6
:10223000F4EEC77AF1EE10FA40F2F080F4EEC67ACE
:10224000F1EE10FAC0F2D58447F6FE7243F8202072
:102250000230083184427FF639AFD1ED007A66EE64
:10226000A77AF4EEC77AF1EE10FAD3D83246D9E75E
:10227000002C3FF429AFD8ED0C6A84469FED787AA4
:102280000022331D8E4656F822100CF1080C07EE82
:10229000901A53F822100232F8EEE77A944267EE71
:1022A000877A67EEA67A4CED027A07EE901AF8EE7E
:1022B000E77A67EE877A67EEA67A4CED017AE2D884
:1022C00071462246C7F81CE0C847664ED8ED0D6A35
:1022D0000020F9692B1D9FED6A7A9FED6A6ADFF88D
:1022E00094C120E0F4EEC67AF1EE10FAC0F27984DF
:1022F0003246D1ED017A45F8202066EEA77AF4EE59
:10230000C77AF1EE10FA40F28780F4EEC67AF1EE69
:1023100010FAC0F25E84324643F8202002300831C1
:1023200084427FF6D3AED1ED007A66EEA77AF4EE62
:10233000C77AF1EE10FAD5D86246DAE7002C3FF4FE
:10234000C3AED8ED0C6A86469FED477A4FF0000C7D
:10235000331D56F82C200EF1080E82F40002A2F56F
:10236000000207EE902A53F82C200CF1020CF8EE34
:10237000E77A82F400026445A2F5000267EE877AEC
:1023800067EEA67A4EED027A07EE902AF8EEE77A2B
:1023900067EE877A67EEA67A4EED017AD9D8F961B1
:1023A0002246C847314ED8ED0D6A0020F9692B1D31
:1023B0009FED337A9FED336ADFF8BCC01FE0F4EE87
:1023C000C67AF1EE10FAC0F2FC833246D1ED017A02
:1023D00045F8202066EEA77AF4EEC77AF1EE10FAFF
:1023E00018D9F4EEC67AF1EE10FAC0F2DA8332466A
:1023F00043F820200230083184427FF667AED1EDE9
:10240000007A66EEA77AF4EEC77AF1EE10FAD6D823
:102410006246DBE76246EBE762467DE7324615E758
:10242000A100D6466208073121F00701ADEB010D8E
:10243000EA46ADEB010D6946ADEB0E0D0AEB8200ED
:10244000EC46ADEB0E0D01EB8202F861E946CCE9FA
:1024500000A0C9E9001290E6D42C01240280FFFFFD
:10246000000000300082FF7F0000003482FF7F0008
:10247000B82C0124007E00807E0080FF0000003820
:1024800004FF7FBF04FF7F3F00FEFF46002C00F0EB
:10249000C982BBF1020FD8F8242000F0FA827969D2
:1024A000C7F8049002EB810E5FED0C5A8A00DCF84D
:1024B00008100EF104007A611A46DCF80C303B611A
:1024C000331DD7F810903D61FD69C7E902CB8C46FA
:1024D000834636F92210D8ED0C7A06EE101A33F93D
:1024E000221006EE901A3EF92210B8EEC66A07EEE8
:1024F000101AF8EEE66A3BF92210B8EEC77A26EE1B
:10250000256A66EEA56A27EE257A26EE276A66EE2C
:10251000A76A27EE277A07EE901A51080232F8EEE2
:10252000E77A0AEB8100944280ED006A05EB8100B6
:1025300067EEA57AC0ED006A0CEB810009EB810122
:1025400080ED007A98ED0C7A67EE877AC1ED007A1B
:10255000BFD8D7F804903D69D7E902CB604662083E
:10256000BB6949469847D8F82C307A69D8ED0D6A8E
:102570001A441FED3D7A1FED3D6A2B1D904602F176
:10258000040A5FED3F5A0022A84ED9E900EC51E061
:10259000F4EEC67AF1EE10FAC0F2C78247F6FE708A
:1025A00045F822000CEB0100D0ED007A66EEA77A28
:1025B000F4EEC77AF1EE10FA4BD9F4EEC67AF1EEEA
:1025C00010FAC0F2BA8247F6FE70BBF1020F43F870
:1025D00022002BD0D9F808000844D0ED007A66EE2E
:1025E000A77AF4EEC77AF1EE10FA36D9F4EEC67A8D
:1025F000F1EE10FAC0F2CD8247F6FE7048F82200E4
:10260000D9F80C000144D1ED007A66EEA77AF4EE19
:10261000C77AF1EE10FA1ED9F4EEC67AF1EE10FA8E
:10262000C0F2AF8247F6FE714AF82210023294429D
:102630007FF6B1AD51080EEB81008900D0ED007A34
:1026400066EEA77AF4EEC77AF1EE10FAA0D830461B
:10265000A6E73046B9E73146E6E73046CEE7002C3C
:1026600000F0E081BBF1020FD8F8243000F0E181E6
:102670007A69DCF8081003EB820EC7F80490930027
:10268000DFED6B5A0EF1040000227B61DCF80C30A8
:102690003B61331DD7F810903D61FD69C7E902CB5E
:1026A0008C46834656F82210D8ED0C7A07EE101AA5
:1026B00053F82210B8EEC76A07EE101A5EF822101F
:1026C000F8EEC76A07EE101A26EE256A5BF82210AC
:1026D000B8EEC77A66EEA56A26EE276A27EE257A57
:1026E00066EEA76A27EE277A07EE901A51080232A3
:1026F000F8EEE77A0AEB8100944280ED006A05EB80
:10270000810067EEA57AC0ED006A0CEB810009EB51
:10271000810180ED007A98ED0C7A67EE877AC1ED41
:10272000007ABFD8D7F804903D69D7E902CB60465C
:102730006208BB6949469847D8F82C307A69D8EDC9
:102740000D6A1A449FED3E7A9FED3E6A131D924634
:10275000DFF8E4C00022FB612B1D364ED9E9008E64
:102760004EE0F4EEC67AF1EE10FAC0F2FC8130468B
:1027700045F822000EEB0100D0ED007A66EEA77A54
:10278000F4EEC77AF1EE10FA49D9F4EEC67AF1EE1A
:1027900010FAC0F2EF813046BBF1020F43F822007D
:1027A0002AD0D9F808000844D0ED007A66EEA77A5E
:1027B000F4EEC77AF1EE10FA35D9F4EEC67AF1EEFE
:1027C00010FAC0F2C98130464AF82200D9F80C004C
:1027D0000144D1ED007A66EEA77AF4EEC77AF1EE05
:1027E00010FA1ED9F4EEC67AF1EE10FAC0F2AD81FD
:1027F0003146F86940F82210023294427FF6CBACA1
:10280000510808EB81008900D0ED007A66EEA77AC6
:10281000F4EEC77AF1EE10FAA3D86046A8E7604656
:10282000BAE76146E5E76046CEE700BF0280FFFFFA
:10283000000000300082FF7F007E00800000003436
:1028400004FF7FBF04FF7F3F002C00F0EB807A691C
:102850000021D8F82430C7F8109003EB820ED7F887
:102860001C909300FD610EF104021FED0C6A7B6168
:10287000331D154656F821204808D8ED0C6ABBF1E7
:10288000020F82F40002A2F5000207EE902A53F82C
:10289000212082F40002B8EEE77AA2F5000227EECA
:1028A000067A07EE902A0AEB8002F8EEE77A27EE26
:1028B000267A67EE867A82ED007A09EB80024FEA8B
:1028C000800067EEA67AC2ED007A27D05EF821205C
:1028D00082F40002A2F5000207EE902A55F82120AA
:1028E00082F40002B8EEE77AA2F5000227EE067A3B
:1028F00007EE902ADCF80820F8EEE77A024427EE8B
:10290000267A67EE867A82ED007A98ED0C7ADCF80A
:102910000C2067EE877A0244C2ED007A02318C42C5
:10292000A8D8D7F8109060466208BB694946FD698F
:102930009847D8F82C307A69D8ED0D6A1A441FED03
:10294000407A1FED406A131D9246DFF8C4C2002290
:10295000FB612B1DAB4ED9E9008E4EE0F4EEC67A3A
:10296000F1EE10FAC0F2C580304645F822000EEBB9
:102970000100D0ED007A66EEA77AF4EEC77AF1EEA8
:1029800010FA49D9F4EEC67AF1EE10FAC0F2BF801F
:102990003046BBF1020F43F822002AD0D9F80800D4
:1029A0000844D0ED007A66EEA77AF4EEC77AF1EE2D
:1029B00010FA35D9F4EEC67AF1EE10FAC0F2AE8014
:1029C00030464AF82200D9F80C000144D1ED007AD3
:1029D00066EEA77AF4EEC77AF1EE10FA1ED9F4EE9D
:1029E000C67AF1EE10FAC0F28B803146F86940F8F1
:1029F0002210023294427FF6CEAB510808EB8100E0
:102A00008900D0ED007A66EEA77AF4EEC77AF1EE8F
:102A100010FAA3D86046A8E76046BAE76146E5E742
:102A20006046CEE7224649466046BB699847FFF7B5
:102A3000B2BBC7F810B0002298ED0C6A331DDFED71
:102A4000726AD7F81CB0786956F8221007EE901A0F
:102A500053F82210B8EEE77A07EE901A51080232C6
:102A6000F8EEE77A27EE267A0AEB810E94420BEB1A
:102A7000810167EEA67A27EE067A67EE867A8EEDFA
:102A8000007AC1ED007ADFD88300D7F810B07B61FF
:102A90004DE61A46C7F810B098ED0C6A331DDFED0D
:102AA0005B6AD7F81CB0786936F9221007EE101A65
:102AB00033F9221007EE901AB8EEC77A51080232A5
:102AC000F8EEE77A27EE267A0AEB810E94420BEBBA
:102AD000810167EEA67A27EE067A67EE867A8EED9A
:102AE000007AC1ED007ADFD88300D7F810B07B619F
:102AF00034E5F0EE675AFEEEE45A15EE900A34E73C
:102B0000F0EE675AFEEEE45A15EE901A6EE7F0EE1C
:102B1000675AFEEEE45A15EE900A3AE7F0EE675A6D
:102B2000FEEEE45A15EE900A4BE767EEA57AFDEE4D
:102B3000E77A17EE900A00B232E567EEA57AFDEE6D
:102B4000E77A17EE900A00B23FE5F0EE675AFEEE24
:102B5000E05A15EE901A4CE6F0EE675AFEEEE05A97
:102B600015EE900A30E6F0EE675AFEEEE05A15EEEA
:102B7000900AFDE5F0EE675AFEEEE05A15EE900A77
:102B80000AE667EEA57AFDEEE77A17EE901A09B22B
:102B90004AE567EEA57AFDEEE77A17EE900A00B2F5
:102BA0002CE5F0EE675AFEEEE45A15EE902A1FE48B
:102BB00067EEA57AFDEEE77A17EE902A12B2FFF7DC
:102BC00031BBF0EE675AFEEEE45A15EE902AFFF79D
:102BD000FDBBF0EE675AFEEEE05A15EE902AFFF7C5
:102BE0009BBBF0EE675AFEEEE05A15EE902AFFF717
:102BF00080BB67EEA57AFDEEE77A17EE902A12B257
:102C0000FFF724BB82FF7F00000000300000003887
:102C10007E0080FF30B5184C154685B0046004F185
:102C2000080EEC460FC98EE80F00D4ED047AF5EEDD
:102C3000C07A8CE80F00F1EE10FA1ADDB7EE006AE8
:102C400094ED057A27EE277AC6EE276A84ED0D7A91
:102C5000C4ED0C6A6DB1204640F8185F02F058FAD6
:102C6000064903690020064A2162A262E36005B0BA
:102C700030BD012005B030BDB82C0124002000304B
:102C80000000003000680830704700BFB1F5807F59
:102C900003680A4628BF4FF48072B1F5807F9A60BE
:102CA00094BF0020012070470068183002F090BAED
:102CB00030B5046883B008480D46A368A26A216A4B
:102CC0009B00009004F1180002F024FA0020C4E9EF
:102CD000000503B030BD00BF5920000810B4074BF9
:102CE0004FF07E5130240022032019619C60D8608F
:102CF0005DF8044B5961C3E906227047B82C0124E2
:102D0000F6EE007A9FED166A20EE207A0160F7EE6B
:102D1000006A80ED036A80ED020A27EE277AC6EE8C
:102D2000877AF4EEE67AF1EE10FA11DDF0EE667ACB
:102D30004FF07E514FF0000C02760022C0ED017A78
:102D4000C0F814C0016143768276C0ED070A70476F
:102D5000F4EEC67AF1EE10FAEAD5F0EE467AE7E73D
:102D6000000000000268037E128807EE902AFBEE46
:102D7000C87A1BB1B7EE007A77EE677AD0ED056AB4
:102D800090ED047A77EEE67A437E67EE877A0BB1B0
:102D9000F1EE677A90ED030A90ED017A77EEC07A52
:102DA000A7EE270A80ED030A704700BF837E80EDFF
:102DB000020AABB9D0ED077A27EE800AF6EE007A68
:102DC000B7EE007A20EE270AC7EE007AF4EEC77A53
:102DD000F1EE10FA07DDF0EE477AC0ED017A7047A8
:102DE000DFED067AE8E7F5EEC07AF1EE10FAF4D5F9
:102DF000DFED037AC0ED017A704700BF6F12033B2D
:102E00000000000030B585B004460025ADF80C1078
:102E1000ADF80820ADF8043003F080FABDF80C20BE
:102E20004FF48073206004F118002283BDF808205D
:102E30006383E383A283257101F040F804F11C0051
:102E400001F03CF89FED060A019904F1080000F03A
:102E500005FA4FF6FF736562238405B030BD00BFED
:102E600000000000F8B5044603F058FA0026236875
:102E70002671834205D104F10800BDE8F84000F056
:102E800007BA012794F82050206004F11800BD40D3
:102E9000277101F0EFF86DB2284394F82150BD403E
:102EA00084F8200004F11C0001F0E4F894F82030CC
:102EB0006DB2666203F003032843022BC0B284F8AC
:102EC000210009D000F003000228D4D1002BD2D178
:102ED0004FF0FF336362CEE78307CCD16762CAE766
:102EE000074A118830B481800024064D91884FF440
:102EF000807285600460C180C26030BC704700BFD2
:102F0000246401080040003038B50446104694F8A7
:102F100095301942237815D0032B19D094F89820B6
:102F2000002594F896300A4025700B40A26001F00D
:102F3000F8021B09F82A237100F08680092B73D947
:102F4000002038BD032BFBD8DFE803F0112A510223
:102F5000F7291CD094F98E2094F88E30002AEFDBEC
:102F6000E21801330020917384F88E3038BD94F854
:102F7000942094F8973022711940131F012B21736C
:102F800005D994F88F3003F0FD03012B45D10023C0
:102F9000237018B19022211D12F06AF8012038BD6B
:102FA00094F8973094F894201940131F2173012B43
:102FB00005D994F88F3003F0FD03012B29D10023AC
:102FC000237000284CD09022211D12F051F894F863
:102FD00094200120032AB4D1237B772BB1D9092275
:102FE000783B227184F8942084F8913038BD94F8AD
:102FF000973094F894201940012A617300D181B16F
:1030000018B19022211D12F033F800230120237003
:1030100038BD022300202370DCE702230020237048
:1030200038BD00232371EBE70122072B227019D151
:1030300001F00703A56084F88F30CBB9032218464E
:1030400084F88E30227038BD0823237194F89930AB
:1030500000221940227084F8901000289AD19DE730
:103060000120B7E7082BF1D0284684F8943038BD0A
:103070004B077FF565AF8AE700220A2302700371D0
:10308000704700BFDFED167A8C46B4EE670A10B5C4
:1030900004468646F1EE10FA2DED028B80ED080A0B
:1030A00048BFB0EE670AC0ED090AB0EE608A80F84A
:1030B0003420BCE80F00AEE80F009CE80F008EE85B
:1030C0000F0011F099FAF0EE407AB0EE480AC4ED24
:1030D0000A7A11F091FA84ED0B0ABDEC028B10BD57
:1030E00095BFD63390F8343010B50446032B4BD837
:1030F000DFE803F03B2A1502FFF734FE60EE006ABA
:10310000D4ED087A94ED097A26EE800A37EE677AD4
:10311000E0EE077AC4ED0C7AB0EE670A10BDFFF757
:1031200021FE94ED0A7AD4ED0B7A77EEC77AA0EE01
:10313000277AB0EE470A11F0EDF9F0EE407A84ED0F
:103140000C0AB0EE670A10BDFFF70CFED4ED087A4A
:1031500094ED097A20EE000A37EE677AE0EE077AFE
:10316000B0EE670AC4ED0C7A10BDFFF7FBFDD4ED9D
:10317000087A94ED097A37EE677AE0EE077AB0EED6
:10318000670AC4ED0C7A10BDD0ED0C7AC4E700BF1D
:1031900030B585B004469FED110A9DF82050ADF87A
:1031A0000C100399ADF808202A46ADF804308DEDD7
:1031B000000A0EF05FFA9DED000A2A46029904F11A
:1031C0001C000EF057FA9DED000A2A46019904F101
:1031D000380005B0BDE830400EF04CBA00007A442B
:1031E00010B52DED028BF0EE608A0446B0EE418AF8
:1031F0000EF064FA04F11C00B0EE680A0EF05EFAFC
:10320000B0EE480A04F13800BDEC028BBDE8104076
:103210000EF054BA38B50C46054691ED000A0EF092
:103220004DFA94ED010A05F11C000EF047FA94EDF9
:10323000020A05F13800BDE838400EF03FBA00BF81
:1032400010B504460EF04CFA04F11C000EF048FADA
:1032500004F13800BDE810400EF042BA70B50446E3
:1032600082B0C1F30726CDB2ADF8041003F056F8D2
:103270004FF480724FF001232060A01DA571A28041
:10328000E671A36002B0BDE8704000F017BE00BF59
:1032900038B5044603F042F80022236822718342C5
:1032A00010D00122A57AE37A954020602271A01DFA
:1032B0006DB243B900F0DEFE40B22843C0B27F28B1
:1032C000A0720AD038BD00F0D5FEB0FA80F04009F7
:1032D0002843C0B27F28A072F4D103F01FF807EE94
:1032E000900AF8EE677AC4ED037A38BD704700BFE4
:1032F000012910B506D0022915D051B1BDE8104002
:1033000007F06CBD0A46344834490DF007FDE8B1BA
:10331000FEE7334B0A46334C334934481C600DF00A
:10332000FDFC68B1FEE701222C492B480DF0F6FCAC
:1033300000B1FEE72E4928480DF012FDC0B1FEE7AE
:103340002B492A480DF00CFD60B1FEE728492248C0
:103350000DF006FD00B1FEE726491F480DF08EFC7A
:1033600008B3FEE7244921480DF088FCA8B1FEE728
:10337000204919480DF082FC00B1FEE716480DF017
:1033800005FD024640B9164B164C174917481C60FC
:103390000DF0C4FC68B1FEE7FEE714480DF0F6FC42
:1033A0000028ABD0FEE70C480DF0F0FC0028A5D0BB
:1033B000FEE70F490D480DF0D3FC00B1FEE70E49C2
:1033C0000A480DF05BFC00B1FEE708480DF0DEFC9A
:1033D000002893D0FEE700BF8C2F01249002002428
:1033E00028320124ED32000874020024F02C01245C
:1033F000F80200245402002444020024084691B23A
:1034000008B503F063FA003818BF012008BD00BFFB
:1034100010B50B4B012A0B4C08461960216006D0F1
:10342000022A01D03AB110BD03F066FA2068BDE867
:10343000104003F067BABDE8104003F05DBA00BF6A
:10344000283201242C320124014806F0A5BF00BF18
:10345000D0740124014806F09FBF00BFD07401243E
:10346000014806F099BF00BFD0740124704700BF27
:1034700030B5D0F80C44ADF2044D3CB3D0F808247C
:10348000D0F804349A4224D0EC460021E6460131BB
:10349000D0F80834D0F804249B1AC3F30903002B96
:1034A000F6D0D0F804345A1C0344C2F309021D7943
:1034B000C0F80424D0F80824D0F804340EF8015BD6
:1034C0009A42E4D1D0F810246046A0470DF2044D92
:1034D00030BD0021EC46F5E7F8B5254CE378002B2C
:1034E00043D00B680E46002B3FD0002105460F4607
:1034F0005B1A032B30D96B5C294413F00E0F2BD0D1
:1035000003F00F03234493F818382BB3013B481CF6
:1035100050FA83F0D4F80434D4F80824013B9B1A01
:10352000C3F3090313B311F801CFD4F80434D4F86A
:103530000824013B9B1AC3F30903002BF5D0D4F8F0
:103540000834814203F101022344C2F3090283F8E3
:1035500004C0C4F80824DDD104372046FFF788FFF3
:103560003368BFB29F423946C2D3F8BDE370F3E778
:1035700034320124CAB2114BA2F1010210B5B2FAE1
:1035800082F282B00E4C5209ADF8041004600120A2
:10359000A4F801101146187020460092FFF7A8FE0B
:1035A00000230A20E37002F0BBFE009A2046054982
:1035B00002B0BDE81040FFF72BBF00BF303201243E
:1035C00034320124D934000803684FF0010CC3F8E9
:1035D0000C1483F803C0C3F8102470470368D8782C
:1035E000704700BF0368D3F80424C3F80824704769
:1035F00030B54FF44072114C114BA4F8012004F681
:103600001805104A03F1100E04F6280CC4F83828E7
:103610004FF60F02A4F83C28072284F83E280FCB6F
:1036200085E80F009EE80F008CE80F002046064A50
:103630000649BDE8304010F007BF00BF3432012416
:103640002C64010880707FF0000000246D340008B5
:1036500000B583B04FF0000E4FF0030C4274ADF88C
:103660000410BDF8043080F810E0A0F802C0038018
:1036700003B05DF804FB00BF2DE9F04FDFF81C83B9
:1036800000258DB0C04C037008F14003426007462E
:1036900001920E46202229464046C4F86831C4F8FB
:1036A0006481CDE90255CDE90455CDE90655CDE952
:1036B0000855CDE90A5511F0E9FC2022294604F508
:1036C000A170C4F83151C4F83551C4F83951C4F867
:1036D0003D5111F0DBFC019B84F8485284F83031F5
:1036E0007A68002A6AD02B4604F59871454606F19F
:1036F000100A9E46F01856F803B0E2180EF1010EBB
:10370000D0F80CC0D0F80490D0F8088044F803B08A
:10371000C2F80CC04FF0000CC2F80490C2F8088048
:10372000008A25F802CB10821AF8032001F8012F35
:10373000002A70D07A684FF001001233724584F885
:103740004802D7D84FF4802290489DF804300821D1
:103750004FF000084FF00009C4F884310023C4E999
:103760005B020122C4F8743184F88031C4E95E211F
:1037700094F84812C4E96489A9B3C4F898210022D6
:1037800084F8813184F888313B78C4E96722002BC2
:1037900038D0012200200121013B84F8A421C4E992
:1037A0006C01082B30D8DFE813F0BD00C200C70061
:1037B000CC00D100D600DB00E100E8009DF8043029
:1037C0000121C4F87421C4F884314FF4802384F8B3
:1037D00080216E4AC4E95B2308230022C4E95E13FA
:1037E0000023C4E964230123002284F881310023EB
:1037F00084F888310323C4F898313B78C4E9672200
:10380000002BC6D184F8A431614804F0B7F903460F
:1038100038B1FFBEFEE77A68123372453FF66AAFF1
:1038200090E702A95A48029304F006FB824600285A
:1038300076D1042240F2FF710A90CDE9081294F883
:103840003021002A00F0F3804FF006080AEBCA038B
:103850004FEACA0904EB43035B7C072B07D8DFE878
:1038600003F0595C5653504D4A04072307930FFA4F
:103870008AF6D14406EBC60604EB490904EB460779
:103880007500384600F01AFB99F81030042B00F34D
:10389000AA80022B00F3BD8000F0B98004EB0A037C
:1038A000002283F8202114F81630002B78D0022B48
:1038B00000F08A80012B40F0B2807B78012B00F071
:1038C000B080002B334B18BF002305A93048CDE949
:1038D000053803F07FFD002840F0AC800AF1010AB2
:1038E00094F830315FFA8AFA534540F2A0802A4BAF
:1038F00053F82A80AAE706230793B8E7052307931E
:10390000B5E704230793B2E703230793AFE7022346
:103910000793ACE700230793A9E701230793A6E7E2
:10392000FFBEFEE703224023C4E96A236CE70722B7
:103930006023C4E96A2367E70F228023C4E96A236E
:1039400062E71F22A023C4E96A235DE73F22C02368
:10395000C4E96A2358E77F22E023C4E96A2353E7D6
:10396000FF224FF48073C4E96A234DE740F2FF124F
:103970004FF49073C4E96A2346E740F2FF324FF4F4
:10398000A073C4E96A233FE7783A0124002002408B
:10399000E43B01240002B025A4640108004100308A
:1039A0007B78062B37D0072B3DD0022B4AD0032B38
:1039B0004AD0002B4CD0012B48D0042B4AD0052BE9
:1039C000254B18BF002380E77B78042B25D0052BDF
:1039D0002BD08BB3012B31D0022B31D0032B1F4BBB
:1039E00018BF002371E70323043504EB0A0B4FF0E3
:1039F000000925448BF82031284609F1010900F01F
:103A00005DFA9BF8203104354B45F5DC4BE701238B
:103A1000EAE70223E8E7124B57E7124B55E700238A
:103A200053E7114B51E7114B4FE7114B4DE70DB0E9
:103A3000BDE8F08FFFBEFEE70E4B46E70E4B44E7B6
:103A40000E4B42E70E4B40E70E4B3EE70E4B3CE77A
:103A50000E4B3AE70E4B38E70000B84F0020903687
:103A60000800900C1000C0102000F0148000501DC1
:103A7000000180210004002A0008302E001060326E
:103A80000040C03A0080F03E000052470000214351
:103A90000000844B38B5094C40F2FF724FF0011121
:103AA00004F5B675284604F075F994F83021D4F879
:103AB00064112846BDE8384003F0E0BE783A01249E
:103AC000034B0F29D3F8640198BF00EB4100704706
:103AD000783A0124214B02689A4200D07047204A6C
:103AE00000232048D2F8D81030B51F4C41F02001F7
:103AF00083B0C4F8D001092004F5E875C4E9750362
:103B00004FF48060C2F8D810D2F8D8204FF400618A
:103B1000C4E9773094F8480202F02002C4F8E411B6
:103B20004FF40051984201922846C4F8E811C4E9C4
:103B30007C33019B14BF00234FF48073C4F8EC3135
:103B400004F0A0FB08B1FFBEFEE704F5B673C4F8AD
:103B5000B851C4F8083203B030BD00BF00200240A5
:103B60000044025840000240783A0124014804F021
:103B700001BF00BF483C012402682DE9F84F4B4BC0
:103B80009A4201D0BDE8F88F494D95F84832002B94
:103B9000F8D095F83031002B77D0002405F10C09CE
:103BA00005F5A17605F59877A04613E003F001012D
:103BB00017F811BCA9F1080000F06AFABBF1010F77
:103BC00025D895F83031013409F112090236A2B234
:103BD00093422BD917F8012F002AF4D0D5F864317D
:103BE0000021327833F81400D5F8683103EB041360
:103BF00023F81200338801339BB233805FFA83FAD3
:103C00003A789A42D2D88A46A6F80080D0E7CAF31A
:103C10004001A9F1040000F03BFABBF1020FCAF326
:103C20008001CED0484600F033FACAE7002395F869
:103C30004802204909229842C5F8D8314FF48060E3
:103C4000C5F8D011C5F8D4214FF400614FF40052EB
:103C5000C5F8DC3108BF4FF48073C5F8E821C5E929
:103C6000780100221448C5E97B32C5F8F42104F03C
:103C700009FB08B1FFBEFEE795F83021D5F86411C5
:103C80000E48BDE8F84F03F0F9BD0A4909224FF488
:103C90008060C5F8D831C5E974124FF400614FF463
:103CA0000052C5E97730C5E97912DAE70020024011
:103CB000783A012440000240483C0124E43B0124BE
:103CC000704700BF10B592B0ADF804100180C9B2C2
:103CD000149C0B29C460C0E901233FD090F801C0B7
:103CE000BCF10F0F3AD8022A3FD0032A02D0012A92
:103CF00000D000220E92012B02D0022B18BF00230D
:103D0000022C0F932CD0032C2AD0012C28D0002376
:103D10000A29109327D85C4A02EB812202610A2902
:103D200014D8DFE801F0A39587796B5D4F41332507
:103D30000600564BD3F8E01041F48061C3F8E01060
:103D4000D3F8E03003F480630C930C9B01230DA99E
:103D5000104603FA0CF30D9305F05EF912B010BD96
:103D60000A291094D7D90022D8E711220E92C2E76F
:103D7000464BD3F8E01041F40071C3F8E010D3F8DB
:103D8000E03003F400730B930B9BDFE73F4BD3F85A
:103D9000E01041F48071C3F8E010D3F8E03003F490
:103DA00080730A930A9BD1E7384BD3F8E01041F0B7
:103DB0008001C3F8E010D3F8E03003F080030993EA
:103DC000099BC3E7314BD3F8E01041F04001C3F841
:103DD000E010D3F8E03003F040030893089BB5E708
:103DE0002A4BD3F8E01041F02001C3F8E010D3F8DB
:103DF000E03003F020030793079BA7E7234BD3F89A
:103E0000E01041F01001C3F8E010D3F8E03003F007
:103E100010030693069B99E71C4BD3F8E01041F082
:103E20000801C3F8E010D3F8E03003F0080305936D
:103E3000059B8BE7154BD3F8E01041F00401C3F864
:103E4000E010D3F8E03003F004030493049B7DE713
:103E50000E4BD3F8E01041F00201C3F8E010D3F8A4
:103E6000E03003F002030393039B6FE7074BD3F8A3
:103E7000E01041F00101C3F8E010D3F8E03003F0A6
:103E800001030293029B61E70000025800440258BC
:103E900008B5012143780069994089B205F0C4FA58
:103EA000003818BF012008BD01230A464178006987
:103EB00003FA01F189B205F0BDBA00BF8378022B85
:103EC00030B504468FB037D0032B33D0012B31D01F
:103ED00000230A93E378012B2AD0022B28D0002359
:103EE0000B93002320460C9303F0EEF80546204682
:103EF00003F0F2F823780990082B13D8DFE803F0D9
:103F00001F3245586B7E91A40500594BD3F8E02031
:103F100042F48072C3F8E020D3F8E03003F48073F9
:103F20000893089B09A9284605F076F80FB030BD24
:103F30000B93D6E70A93CDE711230A93CAE74C4BBC
:103F400009A92846D3F8E02042F00102C3F8E02096
:103F5000D3F8E03003F001030093009B05F05CF818
:103F60000FB030BD424B09A92846D3F8E02042F0FB
:103F70000202C3F8E020D3F8E03003F0020301931B
:103F8000019B05F049F80FB030BD394B09A928460F
:103F9000D3F8E02042F00402C3F8E020D3F8E03088
:103FA00003F004030293029B05F036F80FB030BD16
:103FB0002F4B09A92846D3F8E02042F00802C3F8A5
:103FC000E020D3F8E03003F008030393039B05F0EF
:103FD00023F80FB030BD264B09A92846D3F8E020BE
:103FE00042F01002C3F8E020D3F8E03003F01003F1
:103FF0000493049B05F010F80FB030BD1C4B09A9C9
:104000002846D3F8E02042F02002C3F8E020D3F89D
:10401000E03003F020030593059B04F0FDFF0FB093
:1040200030BD134B09A92846D3F8E02042F04002E6
:10403000C3F8E020D3F8E03003F040030693069B7A
:1040400004F0EAFF0FB030BD094B09A92846D3F8A8
:10405000E02042F08002C3F8E020D3F8E03003F023
:1040600080030793079B04F0D7FF0FB030BD00BF5C
:104070000044025838B5054603F026F804462846A1
:1040800003F02AF801462046BDE8384005F0CCB9D7
:1040900070B506460D4603F017F80446304603F0A7
:1040A0001BF82A1E0146204618BF0122BDE87040B9
:1040B00005F0C0B90023122270B586B0CDE9022305
:1040C00004930368032B01D804230593061D841D64
:1040D000304602F0F9FF0546304602F0FDFF034688
:1040E00001A92846019304F097FF204602F0ECFF57
:1040F000034620461C4602F0EFFF01A90346204676
:10410000019304F089FF06B070BD00BF634A0368E5
:10411000934210B58CB028D0614A934258D0614A7E
:10412000934200F09480604A934201D00CB010BDDD
:104130005E4C5F48D4F8E03043F00203C4F8E0304E
:10414000D4F8E03003F002030A930A9BFFF7B2FFB2
:10415000D4F8F43043F08003C4F8F430D4F8F430E9
:1041600003F080030B930B9BE0E7504C5148D4F8CD
:10417000E03043F00203C4F8E030D4F8E03003F05C
:1041800002030193019BFFF795FFD4F8E83000226A
:104190001F2043F400131146C4F8E830D4F8E83087
:1041A00003F400130293029BD4F8D83043F00103C8
:1041B000C4F8D830D4F8D83003F001030393039B3C
:1041C00003F0AEFE1F200CB0BDE8104003F0E6BEC9
:1041D000364C3948D4F8E03043F08003C4F8E0307E
:1041E000D4F8E03003F080030493049BD4F8E0306B
:1041F00043F00203C4F8E030D4F8E03003F00203E7
:104200000593059BFFF756FFD4F8E83000222120E4
:1042100043F480031146C4F8E830D4F8E83003F4DE
:1042200080030693069BD4F8D83043F00103C4F80A
:10423000D830D4F8D83003F001030793079B03F07C
:104240006FFE21200CB0BDE8104003F0A7BE1B4854
:10425000FFF730FF154B00224820D3F8E840114605
:1042600044F40004C3F8E840D3F8E84004F4000440
:104270000894089CD3F8D84044F00104C3F8D8400F
:10428000D3F8D83003F001030993099B03F048FEEB
:1042900048200CB0BDE8104003F080BE0054004040
:1042A00000580040005C0040001C005800440258C8
:1042B000503F0124C83C0124A03D0124783E012444
:1042C0002DE9F0431A4B87B000254FF010099E46A8
:1042D000EC46184BFF22E04667461A700EF11806AE
:1042E0000EF13004CDE90055CDE90255ADF800904E
:1042F000BCE80F00CDE90455AEE80F009CE80300D0
:104300000095ADF800908EE80300B8E80F000FC6E6
:104310009CE803000095ADF8009086E803000FCFFD
:104320000FC49CE8030084E8030007B0BDE8F083F5
:1043300004000024C43C012410B5EFF3108472B6CD
:10434000084B1A78120602D504B962B610BD1B7864
:10435000D82205485BB202FB0300143004F00AFBCC
:10436000F2E700BFC43C0124C83C0124014805F029
:10437000F9BE00BF543D0124014805F0F3BE00BF63
:104380002C3E0124014805F0EDBE00BF043F01248E
:104390002DE9F0430F68D8243F4D85B007FB04F4A6
:1043A000032F05EB0403036040DCCB680E46012BB2
:1043B0003CD84DD04FF0D808B646DFF8FC9008FB4B
:1043C0000758BEE80F00C446ACE80F00DEF8003026
:1043D0000DF1100ECCF80030D8F808C099E80F00A5
:1043E0000EE90F000EEB8703BCF1010F53F8103CF0
:1043F000C8F88C3031D0BCF1020F42D0BCF1000FB4
:1044000035D0317C8C34D823002201202C4403FB8E
:1044100007534900C3E92602C3F894102046C3E9B4
:104420002822C3E92A2205F08FFC18B1012005B02B
:10443000BDE8F0830146204605F0A0FE0028F5D136
:104440000146204605F0C4FE003818BF0120EEE703
:104450000B7C103B672BADD9E8E702F0FBF80F4B64
:1044600098420CBF0E4B0F4BC8F89030C9E702F0D2
:10447000F1F80A4B98420CBF0B4B0C4BC8F890302C
:10448000BFE702F0E7F8054B98420CBF084B094B19
:10449000C8F89030B5E700BFC83C0124000E2707DC
:1044A0002D0FB0303211D0205F4390608A62E0302F
:1044B000200BA0101A0980104C6401082DE9F0416E
:1044C000D0F8008082B00D4617461E4608F18C04D5
:1044D000204605F04FFE2028FAD1D8F80C3073B9E9
:1044E0006D002046089C33463A46A9B2009405F078
:1044F00081FC003818BF012002B0BDE8F081089BA4
:1045000032463946204605F049FDF2E7044B1022B9
:104510001A7483F8E82083F8C02183F89822704742
:10452000C83C012430B5002395B04FF480710622B9
:1045300004460B9306921393CDE90C13CDE90E3389
:10454000CDE9113302F088F807282BD004F11005CB
:1045500041F2883206A9284606F08CFD28B10123D5
:10456000184684F85C3015B030BD0222022306A93B
:104570002846CDE9002310220123CDE902230022A1
:104580004FF48003CDE9042305224FF08073069297
:104590006A460F9341F2883306F0D8FE0028DED138
:1045A00015B030BD0323012084F85C3015B030BD58
:1045B00070B50023A4B04FF080724FF480750446AC
:1045C000ADF806300D93CDE910320122CDE90E533E
:1045D000CDE91223CDE91433002943D0F02300F1B3
:1045E000100508AEADF80630C02341F288323146DE
:1045F0002846089306F03EFD28B10123184684F8AA
:104600005C3024B070BD41F288320DF106012846BD
:1046100006F09AFD03460028EFD105224FF4807181
:104620001E93284616924FF080721B9321931F927F
:1046300002AA9FED1F7BCDE91C13CDE922338DED3E
:10464000027B9FED1D7B41F2883316A98DED047B23
:104650009FED1B7B8DED067B06F078FE0028CCD10C
:1046600024B070BD00F1100508AE612341F288321C
:1046700031462846089306F0FDFC0028BDD141F2E2
:1046800088320DF10601284606F0DCFD0028B4D181
:10469000BDF80630204623F0780343F04003ADF820
:1046A0000630FFF73FFF00289ED0A6E7AFF300805B
:1046B00000000000010000001000000001000000E8
:1046C00000000000000040002DE9F04F00234FF4EF
:1046D000807501264FF0807804462DED028BABB03B
:1046E0008DF8073013932193299314950E96CDF8E6
:1046F0005C80CDE91533CDE91863CDE91A33CDE9F6
:104700002253CDE92433CDE9273306231C9301F04E
:10471000A3FF072808D004F1100741F288321CA932
:10472000384606F0A7FC40B10123184684F85C30F7
:104730002BB0BDEC028BBDE8F08F4FF0020A4FF0BA
:10474000020B4FF0050941F2883308AA1CA938462C
:10475000CDF89480CDF870909FED2D8BCDE908AB0E
:104760004FF0000A4FF4800B8DED0A8BCDE90CABB6
:1047700006F0ECFD0028D7D141F2883238460EA968
:1047800006F078FC0028CFD1402341F288320DF1A9
:10479000070138468DF8073006F0D6FC0028C3D153
:1047A00041F288330EA902AA3846CDF83890CDF8E8
:1047B0005C809FED197B8DED048BCDE906AB8DED13
:1047C000027B06F0C3FD03460028ADD1CDF8709002
:1047D0004FF00109CDF894804FF00008219308AA0A
:1047E00029931CA938462295CDE92333CDE92733F7
:1047F00041F288338DED0A8BCDE90CABCDE9088908
:1048000006F0A4FD002893D0304684F85C608FE762
:104810001000000001000000400000004000000007
:104820002DE9F043624CA3B00D46046001F014FF83
:10483000072800F0A980286823466968AA6807C38A
:104840001E46AB8926F8043B3046257B677B06F085
:10485000F3FBE0B9574B012D4FF00108E0612361F4
:1048600014BF4FF480134FF40003C4E9058893FA92
:10487000A3F3B3FA83F34FF48079013BC4F8249097
:10488000C4E90B003046236206F06AFB38B101220E
:10489000134684F85C20184623B0BDE8F0836623F5
:1048A0000B90139041F2883206A90693CDE90C9043
:1048B000CDE90E00CDE91100304606F0DBFB002803
:1048C000E5D1992341F2883206A93046069306F0D5
:1048D000D1FB0028DBD105231C9019906A46149364
:1048E0004FF08073219014A91D9341F288339FEDFE
:1048F0002A7BCDE91A90CDE91F008DED007B9FED5D
:10490000287B30468DED027B9FED277B8DED047B70
:1049100006F01CFD0028BAD129462046FFF748FEC4
:104920000028B4D12046FFF7CFFE03460028AED1C1
:10493000002FB0D1189330460027002606AA14A9EC
:10494000CDF86890CDE91F33EB2314934FF4406307
:104950001B934FF4005317934FF440431C93A02331
:104960001693062319934FF0805321934FF0407311
:10497000CDE906671D9306F061FD034600288AD045
:10498000434684F85C8086E701230322184684F8B6
:104990005C2023B0BDE8F0830000000001000000AF
:1049A00010000000010000000000000000004000B6
:1049B00028400124005000522DE9F04F8FB0414BA8
:1049C0000024026800AF9A427C63C7E90944C7E942
:1049D0000B4403D03C37BD46BDE8F08F3A4B40F660
:1049E00009213A48EB46D3F8D42007F11C0607F119
:1049F000220A4FF0020942F480424FF00308C3F844
:104A0000D420D3F8D42002F48042BA60BA68D3F834
:104A1000E02042F04002C3F8E020D3F8E02002F0AA
:104A20004002FA60FA68D3F8E02042F02002C3F8AE
:104A3000E020D3F8E02002F020023A613A69D3F88E
:104A4000E02042F01002C3F8E020D3F8E02002F0AA
:104A500010027A617A69D3F8E02042F00202C3F8CA
:104A6000E020D3F8E030F86103F002033984BB6141
:104A7000174B7B60BB697B6853F8040F7B6002F0C7
:104A800023FB7B680546186802F026FB16F8013BFD
:104A9000786207F124012846C7F830807B63C7E9B4
:104AA0000A9404F0B9FA5645E5D100225C2011467B
:104AB00003F036FA5C2003F071FA3C37DD46BD4660
:104AC000BDE8F08F00500052004402580A0A09095C
:104AD00084400124114B02689A4200D07047104A6A
:104AE00070B5D2F8D4300F4C23F4804304F118068B
:104AF000C2F8D43054F8040F02F0E6FA05462068F4
:104B000002F0EAFA0146284604F0C6FBB442F1D1AD
:104B10005C20BDE8704003F04FBA00BF0050005267
:104B20000044025884400124014806F013BD00BF30
:104B300038400124084B1A1D981D03F1080110B4D8
:104B40009C1C9A6603F10A02C3E91834C3E91B01ED
:104B50005DF8044B5A6770472840012438B5036854
:104B600071B9026A00F1280500F5AC74012A0CBF86
:104B7000002140218BBB1D4B5722C0F858310DE05E
:104B8000426A00F1C00500F5E874012A0CBF00215B
:104B90004021EBB1164B5A22C0F8D03100232046F9
:104BA000C4E901214FF480524FF480616362626175
:104BB0004FF48042C4E903314FF48073C4E9062303
:104BC0004FF40033236203F05DFB58B1FFBEFEE7F4
:104BD000084B5822C0F8D031E0E7074B5922C0F803
:104BE0005831DBE7C5E92044A56338BD1000024019
:104BF0007000024028000240580002402DE9F043B6
:104C0000821D05468BB0031D05F10A010830CDE970
:104C1000052305F10C02AB69CDE907010992002BD0
:104C20003DD0EB69B3FA83F84FEA5818012302220A
:104C300005AE0AAF4FF006090393CDE9012356F8FC
:104C4000044B2B792278934216D02B68F3B1012BB9
:104C500002D1F2B10A230493204602F03DFA034642
:104C60002046009302F030FA694604F0D5F9BE42BE
:104C7000E5D10BB0BDE8F083697963789942E4D15E
:104C8000B8F1000FF3D02B68002BE0D1CDF81090D5
:104C9000E2E76378022B14BF0A230823DBE74FF017
:104CA0000108C3E7534A0368934230B505468BB009
:104CB00055D02032934252D04F4A934204D02032F2
:104CC000934201D00BB030BD4C4C4D48D4F8E0308D
:104CD00043F00103C4F8E030D4F8E03003F00103FE
:104CE0000593059BD4F8E03043F00803C4F8E030A6
:104CF000D4F8E03003F008030693069BD4F8E030C4
:104D000043F04003C4F8E030D4F8E03003F040034F
:104D10000793079BD4F8F03043F40003C4F8F03055
:104D2000D4F8F03003F400030893089BFFF766FF04
:104D3000D4F8D830296843F001032F4A3048C4F82A
:104D4000D830891AD4F8D83018BF012103F00103F4
:104D50000993099B0BB0BDE83040FFF7FFBE274C1D
:104D60002848D4F8E03043F00103C4F8E030D4F828
:104D7000E03003F001030093009BD4F8E03043F0EF
:104D80001003C4F8E030D4F8E03003F010030193CE
:104D9000019BD4F8E03043F04003C4F8E030D4F88D
:104DA000E03003F040030293029BD4F8F03043F468
:104DB0008003C4F8F030D4F8F03003F48003039398
:104DC000039BFFF71BFFD4F8D830296843F0010399
:104DD000084A0C48C4F8D830891AD4F8D83018BF1B
:104DE000012103F001030493049B0BB0BDE83040A4
:104DF000FFF7B4BE04580140045C0140004402586F
:104E0000FC420124A0400124014803F0B3BD00BFCF
:104E1000F8410124014803F0ADBD00BF70420124F8
:104E2000014803F0A7BD00BF54440124014803F02A
:104E3000A1BD00BFCC4401241A4A0368934210B4B8
:104E40000BD02032934208D0174A934216D020321A
:104E5000934213D05DF8044B7047144B0022D3F8F3
:104E60005442C3F85822002CF4D0D3F84802D3E9B6
:104E7000931223465DF8044B520818470B4B00224F
:104E8000D3F8B044C3F8B424002CE3D0D3F8AC2456
:104E9000D3F8A814D3F8A404520823465DF8044BB1
:104EA000184700BF04580140045C0140A0400124A1
:104EB000184A0368934210B40BD02032934208D0B2
:104EC000154A934217D02032934214D05DF8044B18
:104ED0007047124BD3E994245208C3F85822002C8F
:104EE000F4D0D3E99201234601EB820100EB82006A
:104EF0005DF8044B1847094BD3F8AC24D3F8B04401
:104F00005208C3F8B424002CE0D0D3F8A814D3F886
:104F1000A404E8E704580140045C0140A0400124D7
:104F20002DE9F04F0C684FF41776754F87B004FBEE
:104F300006F6012C07EB060AC0F800A000F3A080DB
:104F40000D468E464FF00008D44669A3D3E90023EE
:104F500069A1D1E90001CDE9022306ABCAF850826C
:104F600003EB8403CDE9040153F810BC53F8083C6B
:104F7000CAE992880193BEE80F00ACE80F00BEE8D2
:104F80000F00ACE80F00019B9EE80300CAF828B0B0
:104F9000CAF8C0308CE803002B69042B0CD8DFE87A
:104FA00003F0737D879103004FF41773554A03FB99
:104FB00004739A64C3F8E020AA692B6A002A43D0DC
:104FC000002B4FF4177308BF022203FB047318BFB2
:104FD0000322DA6201221A63EA696B6A002A40D16D
:104FE000191E4FF4177318BF012103FB0473C3E9A3
:104FF00031126B69022B05D8434A12F80380434AE9
:1050000052F823904FF4177306F1280042464946A0
:1050100003FB04740023384463646363E365C4F8EA
:10502000DC30C4F8CC30C4F8F430C4E90F33C4E940
:105030001533C4E93533C4E93B33022308F02CFBB4
:10504000002849D0FFBEFEE7191E4FF4177318BFA2
:10505000012103FB0473C3E90B12EA696B6A002A9E
:10506000BED0002B4FF4177308BF022203FB04735A
:1050700018BF0322C3F8C4200122C3F8C820B8E730
:10508000012007B0BDE8F08F4FF417734FF4FA52C8
:1050900003FB04739A64C3F8E0208DE74FF41773A1
:1050A0004FF47A5203FB04739A64C3F8E02083E759
:1050B0004FF417734FF4FA4203FB04739A64C3F876
:1050C000E02079E74FF417734BF6803203FB04734B
:1050D0009A64C3F8E0206FE706F1C000022342465D
:1050E0004946384408F0D8FA0028CAD0FFBEFEE787
:1050F00004580140045C014024580140245C0140F4
:10510000A040012400770100E4640108E86401087C
:105110000068704770B5046882B015460E46C4F842
:105120005032C4E99212069AC4F85422A269012AA4
:1051300026D0626A012A9AB211D0294604F1C00031
:10514000019208F065FB236A019A012B10D02946D1
:1051500004F1280008F05CFB002002B070BD04F1EF
:10516000C000019208F0E6FB236A019A012BEED100
:10517000314604F1280008F0DDFB002002B070BDCC
:10518000226A012A9AB211D0294604F1280001921C
:1051900008F03EFB636A019A012B10D0294604F106
:1051A000C00008F035FB002002B070BD04F12800FB
:1051B000019208F0BFFB636A019A012BEED13146E0
:1051C00004F1C00008F0B6FB002002B070BD00BFC3
:1051D00003681B69042B05D8044A02EB830393ED93
:1051E000000A70479FED020A704700BFF46401088F
:1051F00000803B470368D3F8580270471F4BC168D3
:105200000268F0B5D3F88C5083B00369ADB24D1B82
:10521000A2B1AB4212D00446866811D2F018E91A46
:10522000CDE9001000F0B4FF0023DDE90010D4E95F
:105230000062B047E3682561AB421BD003B0F0BD0C
:10524000F018C91ACDE9000100F0A2FF0023DDE942
:105250000001D4E90072B8473046294600F098FFB3
:1052600000233046626829462668B047E368256116
:10527000AB42E3D10023236103B0F0BD0000024044
:105280002DE9F84F04460F4690461E4600F13405BE
:10529000284608F0DBFE2028FAD14FF48063002076
:1052A000C4F8D030C4F848314FF44033C4F8CC00CF
:1052B000C4F8E030C4F858314E4BC4F8DC00C4F8F0
:1052C000C03003F57A73C4F8E400C4F838314023E1
:1052D000C4F8C800C4F84031E369C4F84401C4F814
:1052E0005401C4F85C01C4E93500C4E95300072B3C
:1052F0000BD8DFE803F061535A373E454C04512385
:10530000C4F8C4305223C4F83C3104F59C794846B3
:1053100002F0B8FF08B1FFBEFEE7C4F8A890C4F8D9
:105320007051EFF3108972B6DFF8D0B094F91C30E9
:10533000DFF8CCA08BF800300A9B2F4CCAF8003065
:105340000B9B23600EB11846B0471FFA88F239460E
:10535000284608F065FCB0BBB9F1000F00D162B679
:10536000BDE8F88F3F23C4F8C4304023C4F83C3173
:10537000CBE74123C4F8C4304223C4F83C31C4E72E
:105380004723C4F8C4304823C4F83C31BDE74F2359
:10539000C4F8C4305023C4F83C31B6E72B23C4F81A
:1053A000C4302C23C4F83C31AFE72D23C4F8C430FB
:1053B0002E23C4F83C31A8E72923C4F8C4302A239B
:1053C000C4F83C31A1E7FF238BF800300023CAF872
:1053D000003023600A9B3BB10B98012198470120C4
:1053E000B9F1000FBCD1BAE70120B9F1000FB7D174
:1053F000B5E700BF88000240905401248C5401247A
:10540000885401242DE9F84F04460F4690461E4665
:1054100000F13405284608F019FE2028FAD14FF48F
:1054200080630020C4F8D030C4F848314FF44033D2
:10543000C4F8CC00C4F8E030C4F858314E4BC4F87E
:10544000DC00C4F8C03003F57A73C4F8E400C4F893
:1054500038314023C4F8C800C4F84031E369C4F8C7
:105460004401C4F85401C4F85C01C4E93500C4E93E
:105470005300072B0BD8DFE803F061535A373E4542
:105480004C045123C4F8C4305223C4F83C3104F115
:10549000C009484602F0F6FE08B1FFBEFEE7C4F8B8
:1054A000AC90C4F8F850EFF3108972B6DFF8D0B0C2
:1054B00094F91C30DFF8CCA08BF800300A9B2F4CFD
:1054C000CAF800300B9B23600EB11846B0471FFA94
:1054D00088F23946284608F0F5FBB0BBB9F1000F59
:1054E00000D162B6BDE8F88F3F23C4F8C430402332
:1054F000C4F83C31CBE74123C4F8C4304223C4F89C
:105500003C31C4E74723C4F8C4304823C4F83C31D5
:10551000BDE74F23C4F8C4305023C4F83C31B6E78C
:105520002B23C4F8C4302C23C4F83C31AFE72D231F
:10553000C4F8C4302E23C4F83C31A8E72923C4F8AA
:10554000C4302A23C4F83C31A1E7FF238BF8003094
:105550000023CAF8003023600A9B3BB10B9801215D
:1055600098470120B9F1000FBCD1BAE70120B9F189
:10557000000FB7D1B5E700BF880002409054012466
:105580008C540124885401242DE9F0410D4682B049
:10559000EFF3108772B6002948D1FF23254A264C25
:1055A000237013682BB1002029461060234A10682D
:1055B000984723781B0625D5DFF888800025204EE4
:1055C000444605E001351C3406F5D876092D19D07E
:1055D000A369012B1BD0002BF4D121683046002990
:1055E000F0D06369019323690093E3682289FFF790
:1055F00009FF0028E6D1C5EBC50508EB850348F88F
:105600002500586007B962B602B0BDE8F081616854
:105610000029D7D063693046019323690093E3687A
:105620002289FFF72DFE0028CCD1E4E70AF00AF822
:10563000B3E700BF885401248C5401249054012402
:10564000584501244C000024F0B5002387B0022205
:1056500004460493CDE90223027EC3690B2A4FEA74
:10566000430523D1A27E0B2A02D1002007B0F0BD52
:1056700048496B1C484851F8233045780178187820
:10568000E67E884269D0824277D0D87803F1030C55
:1056900081426ED0824278D0987903F1060C88421C
:1056A0006FD0824233D0012007B0F0BD394B3A4869
:1056B00053F8253001784678187894F819C081425B
:1056C0003DD0824241D0D87803F1030E814240D0D0
:1056D00082424AD0987903F1060E884241D0824234
:1056E000E1D1DB796345DED1734604F118069B787E
:1056F0003046059301F0E8FC034630461E4601F0B3
:10570000EBFC01A90190304603F086FCAAE7DB79A7
:10571000B342C8D163461A349B782046059301F002
:10572000D3FC034620461C4601F0D6FC034601A9E3
:105730002046019303F070FC002007B0F0BD93F801
:1057400001E0B645BFD08242BDD158786045BAD19C
:10575000CBE71F79B742BBD1BCE75F78AF4292D1AC
:1057600093E7D979B142BAD19DE718796045B1D1B3
:10577000BAE71F79AF428DD18EE75878B04284D115
:10578000C9E7D979A9428CD18DE71879B04283D184
:10579000C0E700BF64010024600100247E4A036862
:1057A0009342F0B58FB000F0E380A2F54C429342F3
:1057B00000F0E08002F58062934200F0DD8002F5A7
:1057C0008062934200F0DA8002F58062934200F03A
:1057D000D98002F54442934200F0D280A2F51C42E7
:1057E000934200F0D18002F58062934200F0CE80B7
:1057F0006A4A934240F0CC800826694D4FF4D87431
:1058000004FB0654A07E01F06FFC207E01F06CFCCE
:10581000E369082B13D8DFE803F03B495765738130
:105820008F9D05005F4BD3F8F42042F00802C3F8C7
:10583000F420D3F8F43003F008030893089B2046C3
:10584000FFF702FF012801D1FFBEFEE74FF4D87435
:105850000EAA554F0DF1240C04FB0654E36902EB2C
:1058600043050FCFACE80F003B680022ACF80030D6
:10587000114635F9140C02F053FBE3690EAA02EB52
:10588000430333F9140C0FB0BDE8F04002F086BBBF
:10589000444BD3F8F02042F01002C3F8F020D3F8C4
:1058A000F03003F010030093009BC8E73D4BD3F8A2
:1058B000E82042F40032C3F8E820D3F8E83003F4DB
:1058C00000330193019BBAE7364BD3F8E82042F44A
:1058D0008022C3F8E820D3F8E83003F48023029351
:1058E000029BACE72F4BD3F8E82042F40022C3F828
:1058F000E820D3F8E83003F400230393039B9EE7EA
:10590000284BD3F8E82042F48012C3F8E820D3F8FB
:10591000E83003F480130493049B90E7214BD3F801
:10592000F02042F02002C3F8F020D3F8F03003F06A
:1059300020030593059B82E71A4BD3F8E82042F039
:105940008042C3F8E820D3F8E83003F080430693A0
:10595000069B74E7134BD3F8E82042F00042C3F8EB
:10596000E820D3F8E83003F000430793079B66E78D
:10597000002642E7012640E702263EE703263CE7F1
:1059800005263AE7042638E7062636E7072634E7F1
:1059900000239B7EFFDE00BF00100140000C00587A
:1059A00058450124004402585C6401082DE9F04F79
:1059B00091B0002301223F490DF1240A09938B463F
:1059C00001F11C09CAF8143001F13808CDF800A023
:1059D00001F15407CDF804A001F17006CDF808A03C
:1059E00001F18C05CDF80CA001F1A804CDF810A0B0
:1059F00001F1C40ECDF814A001F1E00CCAE90133A5
:105A0000CAE903330F92FF222B4BCDE906AA1A7085
:105A1000BAE80F00ABE80F009AE80700009B8BE89C
:105A200007009B46BBE80F00A9E80F009AE80700B3
:105A3000019B89E807009946B9E80F00A8E80F0024
:105A40009AE80700029B88E807009846B8E80F002C
:105A50000FC79AE80700039B87E807001F460FCF90
:105A60000FC69AE80700049B86E807001E460FCE83
:105A70000FC59AE80700059B85E807001D460FCD76
:105A80000FC49AE80700069B84E807001C460FCC69
:105A9000AEE80F00079B9AE807001C468EE8070057
:105AA0000FCCACE80F009AE807008CE8070011B0B3
:105AB000BDE8F08F4C0000248C54012410B5094C33
:105AC00004F1340008F0D0F9237D1BB1636BDB696E
:105AD000DB0600D410BD2046FFF790FB636B10225D
